{"contracts/Vulnerable.sol":{"Overflow":{"abi":[{"inputs":[{"internalType":"uint256","name":"value","type":"uint256"}],"name":"add","outputs":[{"internalType":"bool","name":"","type":"bool"}],"stateMutability":"nonpayable","type":"function"},{"inputs":[{"internalType":"uint256","name":"value","type":"uint256"}],"name":"safe_add","outputs":[{"internalType":"bool","name":"","type":"bool"}],"stateMutability":"nonpayable","type":"function"},{"inputs":[],"name":"vulnerableMethod","outputs":[],"stateMutability":"nonpayable","type":"function"}],"evm":{"bytecode":{"linkReferences":{},"object":"60806040526000805534801561001457600080fd5b5061027a806100246000396000f3fe608060405234801561001057600080fd5b50600436106100415760003560e01c80631003e2d2146100465780633e127e76146100765780634c0b285d146100a6575b600080fd5b610060600480360381019061005b919061017e565b6100b0565b60405161006d91906101c6565b60405180910390f35b610090600480360381019061008b919061017e565b6100cf565b60405161009d91906101c6565b60405180910390f35b6100ae610109565b005b6000816000808282546100c39190610210565b92505081905550919050565b60008054600054836100e19190610210565b10156100ec57600080fd5b816000808282546100fd9190610210565b92505081905550919050565b60007fffffffffffffffffffffffffffffffffffffffffffffffffffffffffffffffff9050600060018261013d9190610210565b90505050565b600080fd5b6000819050919050565b61015b81610148565b811461016657600080fd5b50565b60008135905061017881610152565b92915050565b60006020828403121561019457610193610143565b5b60006101a284828501610169565b91505092915050565b60008115159050919050565b6101c0816101ab565b82525050565b60006020820190506101db60008301846101b7565b92915050565b7f4e487b7100000000000000000000000000000000000000000000000000000000600052601160045260246000fd5b600061021b82610148565b915061022683610148565b925082820190508082111561023e5761023d6101e1565b5b9291505056fea2646970667358221220f2069d9c74c093fcc98ff9e41719d614d2e0841783544706271e540a0cb44ca464736f6c63430008130033","opcodes":"PUSH1 0x80 PUSH1 0x40 MSTORE PUSH1 0x0 DUP1 SSTORE CALLVALUE DUP1 ISZERO PUSH2 0x14 JUMPI PUSH1 0x0 DUP1 REVERT JUMPDEST POP PUSH2 0x27A DUP1 PUSH2 0x24 PUSH1 0x0 CODECOPY PUSH1 0x0 RETURN INVALID PUSH1 0x80 PUSH1 0x40 MSTORE CALLVALUE DUP1 ISZERO PUSH2 0x10 JUMPI PUSH1 0x0 DUP1 REVERT JUMPDEST POP PUSH1 0x4 CALLDATASIZE LT PUSH2 0x41 JUMPI PUSH1 0x0 CALLDATALOAD PUSH1 0xE0 SHR DUP1 PUSH4 0x1003E2D2 EQ PUSH2 0x46 JUMPI DUP1 PUSH4 0x3E127E76 EQ PUSH2 0x76 JUMPI DUP1 PUSH4 0x4C0B285D EQ PUSH2 0xA6 JUMPI JUMPDEST PUSH1 0x0 DUP1 REVERT JUMPDEST PUSH2 0x60 PUSH1 0x4 DUP1 CALLDATASIZE SUB DUP2 ADD SWAP1 PUSH2 0x5B SWAP2 SWAP1 PUSH2 0x17E JUMP JUMPDEST PUSH2 0xB0 JUMP JUMPDEST PUSH1 0x40 MLOAD PUSH2 0x6D SWAP2 SWAP1 PUSH2 0x1C6 JUMP JUMPDEST PUSH1 0x40 MLOAD DUP1 SWAP2 SUB SWAP1 RETURN JUMPDEST PUSH2 0x90 PUSH1 0x4 DUP1 CALLDATASIZE SUB DUP2 ADD SWAP1 PUSH2 0x8B SWAP2 SWAP1 PUSH2 0x17E JUMP JUMPDEST PUSH2 0xCF JUMP JUMPDEST PUSH1 0x40 MLOAD PUSH2 0x9D SWAP2 SWAP1 PUSH2 0x1C6 JUMP JUMPDEST PUSH1 0x40 MLOAD DUP1 SWAP2 SUB SWAP1 RETURN JUMPDEST PUSH2 0xAE PUSH2 0x109 JUMP JUMPDEST STOP JUMPDEST PUSH1 0x0 DUP2 PUSH1 0x0 DUP1 DUP3 DUP3 SLOAD PUSH2 0xC3 SWAP2 SWAP1 PUSH2 0x210 JUMP JUMPDEST SWAP3 POP POP DUP2 SWAP1 SSTORE POP SWAP2 SWAP1 POP JUMP JUMPDEST PUSH1 0x0 DUP1 SLOAD PUSH1 0x0 SLOAD DUP4 PUSH2 0xE1 SWAP2 SWAP1 PUSH2 0x210 JUMP JUMPDEST LT ISZERO PUSH2 0xEC JUMPI PUSH1 0x0 DUP1 REVERT JUMPDEST DUP2 PUSH1 0x0 DUP1 DUP3 DUP3 SLOAD PUSH2 0xFD SWAP2 SWAP1 PUSH2 0x210 JUMP JUMPDEST SWAP3 POP POP DUP2 SWAP1 SSTORE POP SWAP2 SWAP1 POP JUMP JUMPDEST PUSH1 0x0 PUSH32 0xFFFFFFFFFFFFFFFFFFFFFFFFFFFFFFFFFFFFFFFFFFFFFFFFFFFFFFFFFFFFFFFF SWAP1 POP PUSH1 0x0 PUSH1 0x1 DUP3 PUSH2 0x13D SWAP2 SWAP1 PUSH2 0x210 JUMP JUMPDEST SWAP1 POP POP POP JUMP JUMPDEST PUSH1 0x0 DUP1 REVERT JUMPDEST PUSH1 0x0 DUP2 SWAP1 POP SWAP2 SWAP1 POP JUMP JUMPDEST PUSH2 0x15B DUP2 PUSH2 0x148 JUMP JUMPDEST DUP2 EQ PUSH2 0x166 JUMPI PUSH1 0x0 DUP1 REVERT JUMPDEST POP JUMP JUMPDEST PUSH1 0x0 DUP2 CALLDATALOAD SWAP1 POP PUSH2 0x178 DUP2 PUSH2 0x152 JUMP JUMPDEST SWAP3 SWAP2 POP POP JUMP JUMPDEST PUSH1 0x0 PUSH1 0x20 DUP3 DUP5 SUB SLT ISZERO PUSH2 0x194 JUMPI PUSH2 0x193 PUSH2 0x143 JUMP JUMPDEST JUMPDEST PUSH1 0x0 PUSH2 0x1A2 DUP5 DUP3 DUP6 ADD PUSH2 0x169 JUMP JUMPDEST SWAP2 POP POP SWAP3 SWAP2 POP POP JUMP JUMPDEST PUSH1 0x0 DUP2 ISZERO ISZERO SWAP1 POP SWAP2 SWAP1 POP JUMP JUMPDEST PUSH2 0x1C0 DUP2 PUSH2 0x1AB JUMP JUMPDEST DUP3 MSTORE POP POP JUMP JUMPDEST PUSH1 0x0 PUSH1 0x20 DUP3 ADD SWAP1 POP PUSH2 0x1DB PUSH1 0x0 DUP4 ADD DUP5 PUSH2 0x1B7 JUMP JUMPDEST SWAP3 SWAP2 POP POP JUMP JUMPDEST PUSH32 0x4E487B7100000000000000000000000000000000000000000000000000000000 PUSH1 0x0 MSTORE PUSH1 0x11 PUSH1 0x4 MSTORE PUSH1 0x24 PUSH1 0x0 REVERT JUMPDEST PUSH1 0x0 PUSH2 0x21B DUP3 PUSH2 0x148 JUMP JUMPDEST SWAP2 POP PUSH2 0x226 DUP4 PUSH2 0x148 JUMP JUMPDEST SWAP3 POP DUP3 DUP3 ADD SWAP1 POP DUP1 DUP3 GT ISZERO PUSH2 0x23E JUMPI PUSH2 0x23D PUSH2 0x1E1 JUMP JUMPDEST JUMPDEST SWAP3 SWAP2 POP POP JUMP INVALID LOG2 PUSH5 0x6970667358 0x22 SLT KECCAK256 CALLCODE MOD SWAP14 SWAP13 PUSH21 0xC093FCC98FF9E41719D614D2E0841783544706271E SLOAD EXP 0xC 0xB4 0x4C LOG4 PUSH5 0x736F6C6343 STOP ADDMOD SGT STOP CALLER "},"methodIdentifiers":{"add(uint256)":"1003e2d2","safe_add(uint256)":"3e127e76","vulnerableMethod()":"4c0b285d"}}}}}