{"contracts/GasOpt.sol":{"Gas_opt":{"abi":[{"inputs":[{"internalType":"uint256[]","name":"nums","type":"uint256[]"}],"name":"sumOfEvenNumbers","outputs":[],"stateMutability":"nonpayable","type":"function"},{"inputs":[],"name":"total","outputs":[{"internalType":"uint256","name":"","type":"uint256"}],"stateMutability":"view","type":"function"}],"evm":{"bytecode":{"linkReferences":{},"object":"608060405234801561001057600080fd5b5061035d806100206000396000f3fe608060405234801561001057600080fd5b50600436106100365760003560e01c80632ddbd13a1461003b578063ecb1cdec14610059575b600080fd5b610043610075565b6040516100509190610116565b60405180910390f35b610073600480360381019061006e91906101a0565b61007b565b005b60005481565b60008083839050905060005b818110156100ef5760008585838181106100a4576100a36101ed565b5b90506020020135905060006002826100bc919061024b565b1480156100c95750606381105b156100dd5780846100da91906102ab565b93505b50806100e8906102df565b9050610087565b508160008190555050505050565b6000819050919050565b610110816100fd565b82525050565b600060208201905061012b6000830184610107565b92915050565b600080fd5b600080fd5b600080fd5b600080fd5b600080fd5b60008083601f8401126101605761015f61013b565b5b8235905067ffffffffffffffff81111561017d5761017c610140565b5b60208301915083602082028301111561019957610198610145565b5b9250929050565b600080602083850312156101b7576101b6610131565b5b600083013567ffffffffffffffff8111156101d5576101d4610136565b5b6101e18582860161014a565b92509250509250929050565b7f4e487b7100000000000000000000000000000000000000000000000000000000600052603260045260246000fd5b7f4e487b7100000000000000000000000000000000000000000000000000000000600052601260045260246000fd5b6000610256826100fd565b9150610261836100fd565b9250826102715761027061021c565b5b828206905092915050565b7f4e487b7100000000000000000000000000000000000000000000000000000000600052601160045260246000fd5b60006102b6826100fd565b91506102c1836100fd565b92508282019050808211156102d9576102d861027c565b5b92915050565b60006102ea826100fd565b91507fffffffffffffffffffffffffffffffffffffffffffffffffffffffffffffffff820361031c5761031b61027c565b5b60018201905091905056fea2646970667358221220461a233d8a39cd138a5b4cbda3d8b9c8737e4ac5fd249f17810b3c7e1a63736c64736f6c63430008130033","opcodes":"PUSH1 0x80 PUSH1 0x40 MSTORE CALLVALUE DUP1 ISZERO PUSH2 0x10 JUMPI PUSH1 0x0 DUP1 REVERT JUMPDEST POP PUSH2 0x35D DUP1 PUSH2 0x20 PUSH1 0x0 CODECOPY PUSH1 0x0 RETURN INVALID PUSH1 0x80 PUSH1 0x40 MSTORE CALLVALUE DUP1 ISZERO PUSH2 0x10 JUMPI PUSH1 0x0 DUP1 REVERT JUMPDEST POP PUSH1 0x4 CALLDATASIZE LT PUSH2 0x36 JUMPI PUSH1 0x0 CALLDATALOAD PUSH1 0xE0 SHR DUP1 PUSH4 0x2DDBD13A EQ PUSH2 0x3B JUMPI DUP1 PUSH4 0xECB1CDEC EQ PUSH2 0x59 JUMPI JUMPDEST PUSH1 0x0 DUP1 REVERT JUMPDEST PUSH2 0x43 PUSH2 0x75 JUMP JUMPDEST PUSH1 0x40 MLOAD PUSH2 0x50 SWAP2 SWAP1 PUSH2 0x116 JUMP JUMPDEST PUSH1 0x40 MLOAD DUP1 SWAP2 SUB SWAP1 RETURN JUMPDEST PUSH2 0x73 PUSH1 0x4 DUP1 CALLDATASIZE SUB DUP2 ADD SWAP1 PUSH2 0x6E SWAP2 SWAP1 PUSH2 0x1A0 JUMP JUMPDEST PUSH2 0x7B JUMP JUMPDEST STOP JUMPDEST PUSH1 0x0 SLOAD DUP2 JUMP JUMPDEST PUSH1 0x0 DUP1 DUP4 DUP4 SWAP1 POP SWAP1 POP PUSH1 0x0 JUMPDEST DUP2 DUP2 LT ISZERO PUSH2 0xEF JUMPI PUSH1 0x0 DUP6 DUP6 DUP4 DUP2 DUP2 LT PUSH2 0xA4 JUMPI PUSH2 0xA3 PUSH2 0x1ED JUMP JUMPDEST JUMPDEST SWAP1 POP PUSH1 0x20 MUL ADD CALLDATALOAD SWAP1 POP PUSH1 0x0 PUSH1 0x2 DUP3 PUSH2 0xBC SWAP2 SWAP1 PUSH2 0x24B JUMP JUMPDEST EQ DUP1 ISZERO PUSH2 0xC9 JUMPI POP PUSH1 0x63 DUP2 LT JUMPDEST ISZERO PUSH2 0xDD JUMPI DUP1 DUP5 PUSH2 0xDA SWAP2 SWAP1 PUSH2 0x2AB JUMP JUMPDEST SWAP4 POP JUMPDEST POP DUP1 PUSH2 0xE8 SWAP1 PUSH2 0x2DF JUMP JUMPDEST SWAP1 POP PUSH2 0x87 JUMP JUMPDEST POP DUP2 PUSH1 0x0 DUP2 SWAP1 SSTORE POP POP POP POP POP JUMP JUMPDEST PUSH1 0x0 DUP2 SWAP1 POP SWAP2 SWAP1 POP JUMP JUMPDEST PUSH2 0x110 DUP2 PUSH2 0xFD JUMP JUMPDEST DUP3 MSTORE POP POP JUMP JUMPDEST PUSH1 0x0 PUSH1 0x20 DUP3 ADD SWAP1 POP PUSH2 0x12B PUSH1 0x0 DUP4 ADD DUP5 PUSH2 0x107 JUMP JUMPDEST SWAP3 SWAP2 POP POP JUMP JUMPDEST PUSH1 0x0 DUP1 REVERT JUMPDEST PUSH1 0x0 DUP1 REVERT JUMPDEST PUSH1 0x0 DUP1 REVERT JUMPDEST PUSH1 0x0 DUP1 REVERT JUMPDEST PUSH1 0x0 DUP1 REVERT JUMPDEST PUSH1 0x0 DUP1 DUP4 PUSH1 0x1F DUP5 ADD SLT PUSH2 0x160 JUMPI PUSH2 0x15F PUSH2 0x13B JUMP JUMPDEST JUMPDEST DUP3 CALLDATALOAD SWAP1 POP PUSH8 0xFFFFFFFFFFFFFFFF DUP2 GT ISZERO PUSH2 0x17D JUMPI PUSH2 0x17C PUSH2 0x140 JUMP JUMPDEST JUMPDEST PUSH1 0x20 DUP4 ADD SWAP2 POP DUP4 PUSH1 0x20 DUP3 MUL DUP4 ADD GT ISZERO PUSH2 0x199 JUMPI PUSH2 0x198 PUSH2 0x145 JUMP JUMPDEST JUMPDEST SWAP3 POP SWAP3 SWAP1 POP JUMP JUMPDEST PUSH1 0x0 DUP1 PUSH1 0x20 DUP4 DUP6 SUB SLT ISZERO PUSH2 0x1B7 JUMPI PUSH2 0x1B6 PUSH2 0x131 JUMP JUMPDEST JUMPDEST PUSH1 0x0 DUP4 ADD CALLDATALOAD PUSH8 0xFFFFFFFFFFFFFFFF DUP2 GT ISZERO PUSH2 0x1D5 JUMPI PUSH2 0x1D4 PUSH2 0x136 JUMP JUMPDEST JUMPDEST PUSH2 0x1E1 DUP6 DUP3 DUP7 ADD PUSH2 0x14A JUMP JUMPDEST SWAP3 POP SWAP3 POP POP SWAP3 POP SWAP3 SWAP1 POP JUMP JUMPDEST PUSH32 0x4E487B7100000000000000000000000000000000000000000000000000000000 PUSH1 0x0 MSTORE PUSH1 0x32 PUSH1 0x4 MSTORE PUSH1 0x24 PUSH1 0x0 REVERT JUMPDEST PUSH32 0x4E487B7100000000000000000000000000000000000000000000000000000000 PUSH1 0x0 MSTORE PUSH1 0x12 PUSH1 0x4 MSTORE PUSH1 0x24 PUSH1 0x0 REVERT JUMPDEST PUSH1 0x0 PUSH2 0x256 DUP3 PUSH2 0xFD JUMP JUMPDEST SWAP2 POP PUSH2 0x261 DUP4 PUSH2 0xFD JUMP JUMPDEST SWAP3 POP DUP3 PUSH2 0x271 JUMPI PUSH2 0x270 PUSH2 0x21C JUMP JUMPDEST JUMPDEST DUP3 DUP3 MOD SWAP1 POP SWAP3 SWAP2 POP POP JUMP JUMPDEST PUSH32 0x4E487B7100000000000000000000000000000000000000000000000000000000 PUSH1 0x0 MSTORE PUSH1 0x11 PUSH1 0x4 MSTORE PUSH1 0x24 PUSH1 0x0 REVERT JUMPDEST PUSH1 0x0 PUSH2 0x2B6 DUP3 PUSH2 0xFD JUMP JUMPDEST SWAP2 POP PUSH2 0x2C1 DUP4 PUSH2 0xFD JUMP JUMPDEST SWAP3 POP DUP3 DUP3 ADD SWAP1 POP DUP1 DUP3 GT ISZERO PUSH2 0x2D9 JUMPI PUSH2 0x2D8 PUSH2 0x27C JUMP JUMPDEST JUMPDEST SWAP3 SWAP2 POP POP JUMP JUMPDEST PUSH1 0x0 PUSH2 0x2EA DUP3 PUSH2 0xFD JUMP JUMPDEST SWAP2 POP PUSH32 0xFFFFFFFFFFFFFFFFFFFFFFFFFFFFFFFFFFFFFFFFFFFFFFFFFFFFFFFFFFFFFFFF DUP3 SUB PUSH2 0x31C JUMPI PUSH2 0x31B PUSH2 0x27C JUMP JUMPDEST JUMPDEST PUSH1 0x1 DUP3 ADD SWAP1 POP SWAP2 SWAP1 POP JUMP INVALID LOG2 PUSH5 0x6970667358 0x22 SLT KECCAK256 CHAINID BYTE 0x23 RETURNDATASIZE DUP11 CODECOPY 0xCD SGT DUP11 JUMPDEST 0x4C 0xBD LOG3 0xD8 0xB9 0xC8 PUSH20 0x7E4AC5FD249F17810B3C7E1A63736C64736F6C63 NUMBER STOP ADDMOD SGT STOP CALLER "},"methodIdentifiers":{"sumOfEvenNumbers(uint256[])":"ecb1cdec","total()":"2ddbd13a"}}}}}