{
  "_format": "hh-sol-artifact-1",
  "contractName": "Gas_opt",
  "sourceName": "contracts/GasOpt.sol",
  "abi": [
    {
      "inputs": [
        {
          "internalType": "uint256[]",
          "name": "nums",
          "type": "uint256[]"
        }
      ],
      "name": "sumOfEvenNumbers",
      "outputs": [],
      "stateMutability": "nonpayable",
      "type": "function"
    },
    {
      "inputs": [],
      "name": "total",
      "outputs": [
        {
          "internalType": "uint256",
          "name": "",
          "type": "uint256"
        }
      ],
      "stateMutability": "view",
      "type": "function"
    }
  ],
  "bytecode": "0x608060405234801561001057600080fd5b5061035d806100206000396000f3fe608060405234801561001057600080fd5b50600436106100365760003560e01c80632ddbd13a1461003b578063ecb1cdec14610059575b600080fd5b610043610075565b6040516100509190610116565b60405180910390f35b610073600480360381019061006e91906101a0565b61007b565b005b60005481565b60008083839050905060005b818110156100ef5760008585838181106100a4576100a36101ed565b5b90506020020135905060006002826100bc919061024b565b1480156100c95750606381105b156100dd5780846100da91906102ab565b93505b50806100e8906102df565b9050610087565b508160008190555050505050565b6000819050919050565b610110816100fd565b82525050565b600060208201905061012b6000830184610107565b92915050565b600080fd5b600080fd5b600080fd5b600080fd5b600080fd5b60008083601f8401126101605761015f61013b565b5b8235905067ffffffffffffffff81111561017d5761017c610140565b5b60208301915083602082028301111561019957610198610145565b5b9250929050565b600080602083850312156101b7576101b6610131565b5b600083013567ffffffffffffffff8111156101d5576101d4610136565b5b6101e18582860161014a565b92509250509250929050565b7f4e487b7100000000000000000000000000000000000000000000000000000000600052603260045260246000fd5b7f4e487b7100000000000000000000000000000000000000000000000000000000600052601260045260246000fd5b6000610256826100fd565b9150610261836100fd565b9250826102715761027061021c565b5b828206905092915050565b7f4e487b7100000000000000000000000000000000000000000000000000000000600052601160045260246000fd5b60006102b6826100fd565b91506102c1836100fd565b92508282019050808211156102d9576102d861027c565b5b92915050565b60006102ea826100fd565b91507fffffffffffffffffffffffffffffffffffffffffffffffffffffffffffffffff820361031c5761031b61027c565b5b60018201905091905056fea2646970667358221220461a233d8a39cd138a5b4cbda3d8b9c8737e4ac5fd249f17810b3c7e1a63736c64736f6c63430008130033",
  "linkReferences": {},
  "deployedLinkReferences": {}
}