{
  "_format": "hh-sol-artifact-1",
  "contractName": "Overflow",
  "sourceName": "contracts/Vulnerable.sol",
  "abi": [
    {
      "inputs": [
        {
          "internalType": "uint256",
          "name": "value",
          "type": "uint256"
        }
      ],
      "name": "add",
      "outputs": [
        {
          "internalType": "bool",
          "name": "",
          "type": "bool"
        }
      ],
      "stateMutability": "nonpayable",
      "type": "function"
    },
    {
      "inputs": [
        {
          "internalType": "uint256",
          "name": "value",
          "type": "uint256"
        }
      ],
      "name": "safe_add",
      "outputs": [
        {
          "internalType": "bool",
          "name": "",
          "type": "bool"
        }
      ],
      "stateMutability": "nonpayable",
      "type": "function"
    },
    {
      "inputs": [],
      "name": "vulnerableMethod",
      "outputs": [],
      "stateMutability": "nonpayable",
      "type": "function"
    }
  ],
  "bytecode": "0x60806040526000805534801561001457600080fd5b5061027a806100246000396000f3fe608060405234801561001057600080fd5b50600436106100415760003560e01c80631003e2d2146100465780633e127e76146100765780634c0b285d146100a6575b600080fd5b610060600480360381019061005b919061017e565b6100b0565b60405161006d91906101c6565b60405180910390f35b610090600480360381019061008b919061017e565b6100cf565b60405161009d91906101c6565b60405180910390f35b6100ae610109565b005b6000816000808282546100c39190610210565b92505081905550919050565b60008054600054836100e19190610210565b10156100ec57600080fd5b816000808282546100fd9190610210565b92505081905550919050565b60007fffffffffffffffffffffffffffffffffffffffffffffffffffffffffffffffff9050600060018261013d9190610210565b90505050565b600080fd5b6000819050919050565b61015b81610148565b811461016657600080fd5b50565b60008135905061017881610152565b92915050565b60006020828403121561019457610193610143565b5b60006101a284828501610169565b91505092915050565b60008115159050919050565b6101c0816101ab565b82525050565b60006020820190506101db60008301846101b7565b92915050565b7f4e487b7100000000000000000000000000000000000000000000000000000000600052601160045260246000fd5b600061021b82610148565b915061022683610148565b925082820190508082111561023e5761023d6101e1565b5b9291505056fea2646970667358221220f2069d9c74c093fcc98ff9e41719d614d2e0841783544706271e540a0cb44ca464736f6c63430008130033",
  "linkReferences": {},
  "deployedLinkReferences": {}
}